:100000000C9434000C9451000C9451000C94510049
:100010000C9451000C9451000C9451000C9451001C
:100020000C9451000C9451000C9451000C9451000C
:100030000C9451000C9413040C9451000C94510036
:100040000C9451000C9451000C9451000C945100EC
:100050000C9451000C9451000C9451000C945100DC
:100060000C9451000C94510011241FBECFEFD8E026
:10007000DEBFCDBF11E0A0E0B1E0EAE2F0E102C0F6
:1000800005900D92A235B107D9F721E0A2E5B1E0C4
:1000900001C01D92AA3DB207E1F70E94BD000C9479
:1000A00013080C9400008FEF8093550184E1809336
:1000B00056011092590180E00E94E9061092580101
:1000C00008950E946E06809355010E94BB0680939E
:1000D0005301909155019F3F09F44EC081114CC0CE
:1000E000913089F018F09230D9F034C080EA9FE066
:1000F0000E94C50481E00E94E9061092540180E04C
:100100000E941E0127C080EA9FE00E94C50481E092
:100110000E94E90681E0809354010E941E011AC0EA
:1001200080EA9FE00E94C50481E00E94E906809178
:100130005401811106C081E00E94A80681E00E945E
:100140001E0180915401813029F40E94A80680E0AC
:100150000E941E0180915301811108C060E082E07D
:100160000E942E0481E080935701089561E082E0AF
:100170000E942E0410925701089510925A01109275
:100180008000E1E8F0E0108280818560808384E275
:1001900094EF9093850080938400EFE6F0E08081F7
:1001A0008160808378940E9465010E9449030E94C7
:1001B0004B040E9410060E94AA030E94DE060E94C1
:1001C000C1060E941B010E945300C1E00E94C203AD
:1001D0000E94630580915A01823099F028F48823A7
:1001E00041F0813059F01AC0833081F0843089F0B9
:1001F00015C00E94C5070E94DC0513C00E94610063
:1002000010C00E948E010E94C8060BC00E944301CC
:1002100008C00E9473060E94180603C0C0935A01CA
:10022000D5CF80915A018F5F80935A01853070F24B
:1002300010925A01CBCF10925C01089580935D011A
:1002400080E00E94D00690935F0180935E01209130
:100250005D0121110BC0853F914020F481E0809326
:100260005C01089583E080935C010895213051F48E
:10027000853F914020F081E080935C01089582E009
:1002800080935C01089580915D010E941E01809120
:100290005C01823091F08330A1F08130A9F480E0DC
:1002A0000E94130680E00E94A80681E080935B0113
:1002B0000E94A80610925C01089581E00E94130636
:1002C000089582E00E9413060895CF93DF93109261
:1002D0006C0110926D0110927E00C0E6D1E064E2E4
:1002E00071E0EEE1F1E080E028E730E01992199248
:1002F000DB019D91BD01913051F4863040F4D9016C
:1003000016964C9116979081942B16969C938F5F1E
:100310003196863059F7DF91CF91089580916C0125
:10032000823081F128F4882341F08130F9F05FC0F8
:100330008330C1F18430F1F15AC080916E018F5F3A
:10034000863018F480936E0102C010926E01E09125
:100350006E01F0E0EC5DFE4F8081813009F049C014
:1003600080936C0182E380936D01089580916D010B
:10037000882321F0815080936D01089582E080935D
:100380006C010895E8E7F0E0948180916E01892B7B
:10039000848387E8828382818064828383E0809380
:1003A0006C01089580917A0086FD23C084E08093DB
:1003B0006C01089580917C0085FF03C02091790035
:1003C00030E080917C0085FD06C0E8E7F0E0208108
:1003D000818130E0382BE0916E01F0E0EE0FFF1FDD
:1003E000E05AFE4F3183208310926C0108951092E1
:1003F0006C010895E8E7F0E094819F7794839481FD
:1004000090649483823068F4811104C08481806296
:10041000848307C0813029F4E8E7F0E084818F7D90
:100420008483623078F4611106C0E8E7F0E08281ED
:100430008F7D82830895613029F4E8E7F0E08281BE
:10044000806282830895863048F4E82FF0E0EE0F52
:10045000FF1FE05AFE4F80819181089580E090E077
:10046000089570E0FB01EE5CFE4F2081813031F099
:1004700018F0823029F005C095B103C098B101C0D1
:100480009BB1413069F4E82FF0E0EE0FFF1FE05020
:10049000FF4F0190F081E02D8181822B81830895AF
:1004A000411114C0E82FF0E0EE0FFF1FE050FF4FA6
:1004B0000190F081E02D8181DB01A65DBE4F9C9112
:1004C000982391839281822F892B828308954111F1
:1004D00014C0E82FF0E0EE0FFF1FE050FF4FA081A7
:1004E000B18112969C911297E62FF0E0E65DFE4FE7
:1004F0008081892312968C930895E82FF0E0EE0F07
:10050000FF1FE050FF4FA081B18112969C9112977E
:10051000E62FF0E0EE5CFE4F8081892B12968C93E3
:100520000895E82FF0E0EE0FFF1FE050FF4F01901D
:10053000F081E02D9081E62FF0E0EE5CFE4F8081AF
:10054000982381E009F480E008959B012D563740FF
:10055000273C310518F5813069F018F08230A1F0A0
:100560001DC092E295BD9B0125553B40273C3105BE
:1005700008F179C092E2909381009B0125553B40A0
:10058000273C310500F176C092E29093B1009B01C7
:1005900025553B40273C310500F173C09B01255593
:1005A0003B40273C310518F5813069F018F0823066
:1005B000F1F413C093E295BD9B012D533F40273CBE
:1005C000310508F13AC093E2909381009B012D53CD
:1005D0003F40273C3105F8F030C093E29093B100E2
:1005E0009B012D533F40273C3105F0F026C09B0175
:1005F0002D533F40273C310500F5813061F018F064
:100600008230D9F411C082E085BD65527341673CE8
:100610007105F0F0089582E0809381006552734186
:10062000673C7105C0F0089582E08093B100655287
:100630007341673C710598F0089565527341673CBA
:10064000710530F5813039F018F0823009F507C0B6
:1006500085E285BD089585E280938100089585E255
:100660008093B10008959B012D533F40273C3105F5
:1006700050F2E3CF9B012D533F40273C310558F208
:10068000DCCF9B012D533F40273C310568F2D5CF8D
:100690000895CF93DF93539AC0EBD0E081E3888332
:1006A00060E777E182E00E94A5021C82DF91CF9192
:1006B0000895653608F064E6823001F128F4882355
:1006C00049F0813089F00895843071F110F185305E
:1006D000B1F108952FEF629FC001112464E670E02C
:1006E0000E94EB0767BD08952FEF629FC0011124A0
:1006F00064E670E00E94EB0768BD08952FEF629FEB
:10070000C001112464E670E00E94EB076093890049
:1007100008952FEF629FC001112464E670E00E94EB
:10072000EB0760938B0008952FEF629FC0011124A7
:1007300064E670E00E94EB076093B30008952FEF2A
:10074000629FC001112464E670E00E94EB07609391
:10075000B4000895E1E7F1E080E891E010821282B0
:1007600011823396E817F907C9F7E0E8F1E08CE960
:1007700091E010821182128213823496E817F907F1
:10078000C1F7089580915201813041F5E0E8F1E030
:100790002CE931E04BE380818130D1F483818823DF
:1007A00049F08150838352819181952B892B81F46B
:1007B00010820EC08281882321F08150828343837E
:1007C00007C08181882321F0815081834283438344
:1007D0003496E217F307F9F6109252010895873024
:1007E000C0F490E0FC01EE0FFF1FEE0FFF1FE0587A
:1007F000FE4F1082618342832383242B622B49F0B6
:10080000880F991F880F991FFC01E058FE4F81E067
:100810008083089524E0829FC0011124FC01E058E8
:10082000FE4F808108951F920F920FB60F921124F0
:100830008F939F9380915201811109C084E294EFBC
:10084000909385008093840081E0809352019F9172
:100850008F910F900FBE0F901F90189590E0662318
:1008600031F0FC01E356FE4F21E020830895FC01A6
:10087000E356FE4F10820895EDE9F1E021EA31E000
:1008800091E0882311F0908301C010823196E21725
:10089000F307B9F708950F931F93CF93DF93CEE03B
:1008A000D1E006E111E041E0698188810E943102D6
:1008B0002296C017D107B9F7C6E0D1E00EE011E0EB
:1008C00040E0698188810E9431022296C017D107D9
:1008D000B9F781E00E943C04549A579A209A60E04C
:1008E00081E00E94FA011092B90110929C01E0E4AB
:1008F000F1E08DEA91E0C1ECD1E06AEB71E046E411
:1009000051E02191213039F4DC011D921C921982B1
:100910001882DB011C92029622966F5F7F4FE417CC
:10092000F50779F7DF91CF911F910F910895282F47
:10093000843070F48091C00190E0A0E0B0E004C089
:10094000B695A795979587952A95D2F781700895C2
:1009500080E008950E94DF050895863048F4E82F6E
:10096000F0E0EE0FFF1FE355FE4F80819181089567
:100970000895882329F062E385E00E9459030895D1
:1009800060E085E00E9459030895803D27E09207CA
:1009900020F0BC0182E00E94A5020895AF92BF92B0
:1009A000CF92DF92EF92FF920F931F93CF93DF933B
:1009B000CAE4D1E00F2EFDE9EF2EF1E0FF2EF02D7D
:1009C0000EE011E00F2EFEE4CF2EF1E0DF2EF02D31
:1009D000BB24B394A12C8991813059F4F8014B2D9B
:1009E000D7018C91811101C04A2D618180810E94C3
:1009F0006702BFEFEB1AFB0A0E5F1F4FCC15DD0538
:100A000051F7DF91CF911F910F91FF90EF90DF9001
:100A1000CF90BF90AF9008958F929F92AF92BF9268
:100A2000DF92EF92FF920F931F93CF93DF930F2EDE
:100A3000F6E4EF2EF1E0FF2EF02D06E011E0C0E02D
:100A4000D0E0812C912C54018394F70181917F0196
:100A5000813039F5F801618180810E949102811114
:100A600010C0D501C4010C2E04C0880F991FAA1F05
:100A7000BB1F0A94D2F72091C001822B8093C00142
:100A800010C0D501C4010C2E04C0880F991FAA1FE5
:100A9000BB1F0A94D2F780959091C001892380935F
:100AA000C00121960E5F1F4FC430D10571F6DF9152
:100AB000CF911F910F91FF90EF90DF90BF90AF907B
:100AC0009F908F9008950E94CE040E940C05089577
:100AD000CF93DF938091B901813019F0833031F0E9
:100AE0005DC060E081E00E94FA0158C0C0919C01A5
:100AF000D0E0FE01E05CFE4F8081813009F044C00F
:100B0000FE01E654FE4F8081883038F5FE01E65C38
:100B1000FE4F80810E942302CC0FDD1FCF55DE4F98
:100B200099838883E0919C01F0E0CF01880F991FA1
:100B3000DC01AF53BE4FEC01CF55DE4F2D913C9100
:100B4000119788819981820F931F8D939C93E6540E
:100B5000FE4F80818F5F808317C0FE01EE0FFF1F65
:100B6000DF01A355BE4FEF53FE4F808191819695D3
:100B7000879596958795969587958D939C931182E9
:100B80001082C654DE4F188280919C018F5F8630A0
:100B900018F480939C0102C010929C018091B901CD
:100BA0008F5F843018F48093B90103C081E0809393
:100BB000B901DF91CF9108950E9468050895FB0166
:100BC0005C9847E050E0208130E0042E02C035956B
:100BD00027950A94E2F720FF02C0289A01C02898BE
:100BE0005F9A5F984150510970F727E030E0E82F95
:100BF000F0E0E25BFE4F408150E0CA01022E02C0ED
:100C0000959587950A94E2F780FF02C0289A01C063
:100C100028985F9A5F982150310978F75C9A089577
:100C20001092CF010895853010F48093CF0108957C
:100C30008091CF018230E9F028F4882341F081309F
:100C400079F008958330F1F0843029F1089561E05E
:100C500080E00E942E0461E081E00E942E0408954D
:100C600060E080E00E942E0461E081E00E942E049A
:100C7000089561E080E00E942E0460E081E00E941F
:100C80002E04089561E080E00E942E0461E081E07E
:100C90000E942E04089561E080E00E942E0461E02D
:100CA00081E00E942E0408958AEA8093CE0180E0BC
:100CB0000E949704813011F41092CE0181E00E94CD
:100CC0009704813011F48093CE0182E00E94970452
:100CD000813019F482E08093CE0108950E94540679
:100CE0008091CE01089580E00E94D006853F91401A
:100CF000B8F41092CD016AE171E080E00E94AA048C
:100D00006BE171E081E00E94AA046CE171E082E095
:100D10000E94AA046DE171E083E00E94AA04089594
:100D200081E08093CD0166E171E080E00E94AA0439
:100D300067E171E081E00E94AA0468E171E082E06D
:100D40000E94AA0469E171E083E00E94AA04089568
:100D50008093D001811107C060E082E00E942E04E0
:100D600010925701089561E082E00E942E0481E014
:100D700080935701089583E00E9497048093D101E6
:100D80000895E2EDF1E0118210821382128208953B
:100D900080E00E94AD049093D3018093D201089526
:100DA000823048F4E82FF0E0EE0FFF1FEE52FE4FC6
:100DB00080819181089580E090E0089583E08093A0
:100DC000D6011092D8011092D90181E08093D70109
:100DD0000895843020F083E08093D60108958093B5
:100DE000D601089588E893E10E94C5048091D80156
:100DF000823071F128F4882359F08130B1F06CC051
:100E0000843009F44BC0B8F1853009F45AC064C08D
:100E100081E00E94B90421E040E060E082E00E94AD
:100E2000EF0381E08093D801089582E00E940A04D4
:100E3000811156C021E040E060E082E00E94EF03B3
:100E400082E08093D80180E00E94B90481E0089597
:100E500082E00E940A04811145C021E040E060E088
:100E600082E00E94EF0383E08093D80181E00E943A
:100E7000B90481E0089582E00E940A04811134C01F
:100E800021E040E060E082E00E94EF0384E0809394
:100E9000D80180E00E94B90481E0089582E00E94B8
:100EA0000A04811123C021E040E060E082E00E945A
:100EB000EF0385E08093D80181E00E94B90481E0CE
:100EC000089582E00E940A04811112C01092D80194
:100ED0000E94B90480E008951092D80180E008953E
:100EE00081E0089581E0089581E0089581E008950A
:100EF00081E008958091D901882319F0813071F043
:100F000018C021E040E060E083E00E94EF0381E050
:100F10000E94B90481E08093D901089583E00E9482
:100F20000A0481110AC00E94B9041092D90180E01C
:100F300008951092D90180E0089581E0089580918C
:100F4000D701882379F08130C9F423E040E060E0E4
:100F500084E00E94EF0381E00E94B9041092D7015F
:100F600081E0089584E00E940A0481110CC00E946F
:100F7000B90481E08093D70180E0089581E08093F7
:100F8000D70180E0089581E008958091D6018130F5
:100F900071F028F0823099F08330C9F008950E94F2
:100FA000F206811117C083E08093D60108950E9454
:100FB0007A0781110FC083E08093D60108950E94C3
:100FC0009F07811107C083E08093D601089580E0D8
:100FD0000E94B904089597FB072E16F4009407D0D9
:100FE00077FD09D00E94FF0707FC05D03EF49095DD
:100FF00081959F4F0895709561957F4F0895AA1B25
:10100000BB1B51E107C0AA1FBB1FA617B70710F0F3
:10101000A61BB70B881F991F5A95A9F78095909525
:0A102000BC01CD010895F894FFCF44
:10102A002300260029000101010201030200000534
:10103A00000400030002C0C0C0F9C0C0C0C0010261
:10104A0004081020010000000000FEFDFBF7EFDF9E
:10105A00BF7F01020408102040800001020304053A
:10106A000100000000000101010101010101F1F28A
:02107A00F4F888
:00000001FF
