:100000000C9434000C9451000C9451000C94510049
:100010000C9451000C9451000C9451000C9451001C
:100020000C9451000C9451000C9451000C9451000C
:100030000C9451000C94F1030C9451000C94510059
:100040000C9451000C9451000C9451000C945100EC
:100050000C9451000C9451000C9451000C945100DC
:100060000C9451000C94510011241FBECFEFD8E026
:10007000DEBFCDBF11E0A0E0B1E0E8E0F0E102C0FA
:1000800005900D92A235B107D9F721E0A2E5B1E0C4
:1000900001C01D92AA3DB207E1F70E949B000C949B
:1000A00002080C9400008FEF8093540184E1809348
:1000B000550108950E944C06809354018F3FD1F161
:1000C000813089F018F08230D9F0089580EA9FE0FD
:1000D0000E94A30481E00E94D8061092530180E0A0
:1000E0000E94FC00089580EA9FE00E94A30481E042
:1000F0000E94D80681E0809353010E94FC0008957D
:1001000080EA9FE00E94A30481E00E94D8068091CB
:100110005301811106C081E00E948C0681E00E949B
:10012000FC0080915301813029F40E948C0680E00C
:100130000E94FC0008951092580110928000E1E89E
:10014000F0E0108280818560808387EF92EC90934D
:10015000850080938400EFE6F0E0808181608083F9
:1001600078940E9443010E9427030E9429040E9460
:10017000EE050E9488030E94CD060E94B0060E94F0
:10018000F9000E945300C1E00E94A0030E944105B3
:1001900080915801823099F028F4882341F0813011
:1001A00059F01AC0833081F0843089F015C00E9464
:1001B000B4070E94BA0513C00E945A0010C00E94E2
:1001C0006C010E94B7060BC00E94210108C00E946A
:1001D00051060E94F60503C0C0935801D5CF809107
:1001E00058018F5F80935801853070F2109258014A
:1001F000CBCF10925A01089580935B0180E00E945A
:10020000BF0690935D0180935C0120915B012111F9
:100210000BC0853F914020F481E080935A010895FE
:1002200083E080935A010895213051F4853F914035
:1002300020F081E080935A01089582E080935A0172
:10024000089580915B010E94FC0080915A018230E8
:1002500091F08330A1F08130A9F480E00E94F10593
:1002600080E00E948C0681E0809359010E948C06F8
:1002700010925A01089581E00E94F105089582E0EC
:100280000E94F1050895CF93DF9310926A011092B6
:100290006B0110927E00CEE5D1E064E271E0EEE108
:1002A000F1E080E028E730E019921992DB019D919E
:1002B000BD01913051F4863040F4D90116964C912D
:1002C00016979081942B16969C938F5F319686306B
:1002D00059F7DF91CF91089580916A01823081F1C1
:1002E00028F4882341F08130F9F05FC08330C1F1F8
:1002F0008430F1F15AC080916C018F5F863018F420
:1003000080936C0102C010926C01E0916C01F0E0EE
:10031000EC5DFE4F8081813009F049C080936A0115
:1003200082E380936B01089580916B01882321F013
:10033000815080936B01089582E080936A01089553
:10034000E8E7F0E0948180916C01892B848387E851
:10035000828382818064828383E080936A0108952E
:1003600080917A0086FD23C084E080936A0108951D
:1003700080917C0085FF03C02091790030E080915E
:100380007C0085FD06C0E8E7F0E02081818130E057
:10039000382BE0916C01F0E0EE0FFF1FE25AFE4FA8
:1003A0003183208310926A01089510926A010895A2
:1003B000E8E7F0E094819F7794839481906494833C
:1003C000823068F4811104C084818062848307C014
:1003D000813029F4E8E7F0E084818F7D8483623006
:1003E00078F4611106C0E8E7F0E082818F7D8283B6
:1003F0000895613029F4E8E7F0E082818062828329
:100400000895863048F4E82FF0E0EE0FFF1FE25A1F
:10041000FE4F80819181089580E090E0089570E022
:10042000FB01EE5CFE4F2081813031F018F082300C
:1004300029F005C095B103C098B101C09BB141300E
:1004400069F4E82FF0E0EE0FFF1FE050FF4F01903E
:10045000F081E02D8181822B81830895411114C0A8
:10046000E82FF0E0EE0FFF1FE050FF4F0190F0810A
:10047000E02D8181DB01A65DBE4F9C919823918385
:100480009281822F892B82830895411114C0E82F15
:10049000F0E0EE0FFF1FE050FF4FA081B1811296F8
:1004A0009C911297E62FF0E0E65DFE4F8081892354
:1004B00012968C930895E82FF0E0EE0FFF1FE050A6
:1004C000FF4FA081B18112969C911297E62FF0E028
:1004D000EE5CFE4F8081892B12968C930895E82F55
:1004E000F0E0EE0FFF1FE050FF4F0190F081E02D94
:1004F0009081E62FF0E0EE5CFE4F8081982381E052
:1005000009F480E008959B012D563740273C3105C2
:1005100018F5813069F018F08230A1F01DC092E228
:1005200095BD9B0125553B40273C310508F179C01D
:1005300092E2909381009B0125553B40273C310579
:1005400000F176C092E29093B1009B0125553B40AB
:10055000273C310500F173C09B0125553B40273CEA
:10056000310518F5813069F018F08230F1F413C0CC
:1005700093E295BD9B012D533F40273C310508F187
:100580003AC093E2909381009B012D533F40273C5A
:100590003105F8F030C093E29093B1009B012D53E8
:1005A0003F40273C3105F0F026C09B012D533F40D2
:1005B000273C310500F5813061F018F08230D9F424
:1005C00011C082E085BD65527341673C7105F0F052
:1005D000089582E08093810065527341673C710504
:1005E000C0F0089582E08093B10065527341673C8A
:1005F000710598F0089565527341673C710530F5B7
:10060000813039F018F0823009F507C085E285BDE8
:10061000089585E280938100089585E28093B1007A
:1006200008959B012D533F40273C310550F2E3CF05
:100630009B012D533F40273C310558F2DCCF9B01F5
:100640002D533F40273C310568F2D5CF0895CF9315
:10065000DF93539AC0EBD0E081E3888360E777E1D2
:1006600082E00E9483021C82DF91CF91089565365B
:1006700008F064E6823001F128F4882349F08130E3
:1006800089F00895843071F110F18530B1F1089549
:100690002FEF629FC001112464E670E00E94DA0728
:1006A00067BD08952FEF629FC001112464E670E0DA
:1006B0000E94DA0768BD08952FEF629FC0011124E0
:1006C00064E670E00E94DA076093890008952FEFD6
:1006D000629FC001112464E670E00E94DA07609313
:1006E0008B0008952FEF629FC001112464E670E033
:1006F0000E94DA076093B30008952FEF629FC00154
:10070000112464E670E00E94DA076093B400089553
:10071000EFE6F1E08EE791E01082128211823396CB
:10072000E817F907C9F7EEE7F1E08AE991E01082EE
:100730001182128213823496E817F907C1F70895DF
:1007400080915201813041F5EEE7F1E02AE931E094
:100750004BE380818130D1F48381882349F081503B
:10076000838352819181952B892B81F410820EC055
:100770008281882321F081508283438307C0818155
:10078000882321F081508183428343833496E2178A
:10079000F307F9F61092520108958730C0F490E003
:1007A000FC01EE0FFF1FEE0FFF1FE258FE4F1082FD
:1007B000618342832383242B622B49F0880F991F86
:1007C000880F991FFC01E258FE4F81E08083089555
:1007D00024E0829FC0011124FC01E258FE4F808179
:1007E00008951F920F920FB60F9211248F939F932B
:1007F00080915201811109C084E294EF90938500A9
:100800008093840081E0809352019F918F910F909B
:100810000FBE0F901F90189590E0662331F0FC01F9
:10082000E556FE4F21E020830895FC01E556FE4F7A
:1008300010820895EBE9F1E02FE931E091E088239F
:1008400011F0908301C010823196E217F307B9F7D7
:1008500008950F931F93CF93DF93CEE0D1E006E18D
:1008600011E041E0698188810E940F022296C01741
:10087000D107B9F7C6E0D1E00EE011E040E06981B0
:1008800088810E940F022296C017D107B9F781E034
:100890000E941A04549A579A209A60E081E00E94BC
:1008A000D8011092B70110929A01E0E4F1E08BEACE
:1008B00091E0CFEBD1E068EB71E046E451E02191AB
:1008C000213039F4DC011D921C9219821882DB015F
:1008D0001C92029622966F5F7F4FE417F50779F717
:1008E000DF91CF911F910F910895282F843070F4DC
:1008F0008091BE0190E0A0E0B0E004C0B695A7955D
:10090000979587952A95D2F78170089580E008958C
:100910000E94BD050895863048F4E82FF0E0EE0F00
:10092000FF1FE555FE4F808191810895089588232A
:1009300029F062E385E00E943703089560E085E0D6
:100940000E9437030895803D27E0920720F0BC0104
:1009500082E00E9483020895AF92BF92CF92DF920D
:10096000EF92FF920F931F93CF93DF93CAE4D1E0EE
:100970000F2EFBE9EF2EF1E0FF2EF02D0EE011E03F
:100980000F2EFEE4CF2EF1E0DF2EF02DBB24B3942A
:10099000A12C8991813059F4F8014B2DD7018C910C
:1009A000811101C04A2D618180810E944502BFEF03
:1009B000EB1AFB0A0E5F1F4FCC15DD0551F7DF91D7
:1009C000CF911F910F91FF90EF90DF90CF90BF904C
:1009D000AF9008958F929F92AF92BF92DF92EF9265
:1009E000FF920F931F93CF93DF930F2EF6E4EF2E1A
:1009F000F1E0FF2EF02D06E011E0C0E0D0E0812C08
:100A0000912C54018394F70181917F01813039F554
:100A1000F801618180810E946F02811110C0D501AF
:100A2000C4010C2E04C0880F991FAA1FBB1F0A9473
:100A3000D2F72091BE01822B8093BE0110C0D50158
:100A4000C4010C2E04C0880F991FAA1FBB1F0A9453
:100A5000D2F780959091BE0189238093BE012196A3
:100A60000E5F1F4FC430D10571F6DF91CF911F91FA
:100A70000F91FF90EF90DF90BF90AF909F908F907D
:100A800008950E94AC040E94EA040895CF93DF9376
:100A90008091B701813019F0833031F05DC060E0A2
:100AA00081E00E94D80158C0C0919A01D0E0FE01B7
:100AB000E05CFE4F8081813009F044C0FE01E854C3
:100AC000FE4F8081883038F5FE01E65CFE4F808164
:100AD0000E940102CC0FDD1FC156DE4F998388832F
:100AE000E0919A01F0E0CF01880F991FDC01A15439
:100AF000BE4FEC01C156DE4F2D913C91119788817C
:100B00009981820F931F8D939C93E854FE4F8081AF
:100B10008F5F808317C0FE01EE0FFF1FDF01A55519
:100B2000BE4FE154FE4F80819181969587959695B1
:100B30008795969587958D939C9311821082C854C2
:100B4000DE4F188280919A018F5F863018F480936F
:100B50009A0102C010929A018091B7018F5F843090
:100B600018F48093B70103C081E08093B701DF914F
:100B7000CF9108950E9446050895FB015C9847E0D7
:100B800050E0208130E0042E02C0359527950A946C
:100B9000E2F720FF02C0289A01C028985F9A5F9868
:100BA0004150510970F727E030E0E82FF0E0E25BB8
:100BB000FE4F408150E0CA01022E02C095958795F4
:100BC0000A94E2F780FF02C0289A01C028985F9A31
:100BD0005F982150310978F75C9A08951092CD0101
:100BE0000895853010F48093CD0108958091CD0152
:100BF0008230E9F028F4882341F0813079F00895BB
:100C00008330F1F0843029F1089561E080E00E94A2
:100C10000C0461E081E00E940C04089560E080E033
:100C20000E940C0461E081E00E940C04089561E0E0
:100C300080E00E940C0460E081E00E940C040895B2
:100C400061E080E00E940C0461E081E00E940C04FD
:100C5000089561E080E00E940C0461E081E00E9460
:100C60000C0408958AEA8093CC0180E00E94750408
:100C7000813011F41092CC0181E00E947504813022
:100C800011F48093CC0182E00E947504813019F444
:100C900082E08093CC0108950E9432068091CC01BD
:100CA000089580E00E94BF06853F9140B8F41092FD
:100CB000CB016AE171E080E00E9488046BE171E0A1
:100CC00081E00E9488046CE171E082E00E94880467
:100CD0006DE171E083E00E948804089581E08093D3
:100CE000CB0166E171E080E00E94880467E171E079
:100CF00081E00E94880468E171E082E00E9488043B
:100D000069E171E083E00E948804089583E00E9415
:100D100075048093D00108958093CF0181110DC097
:100D200021E040E060E082E00E94CD0361E082E0EB
:100D30000E940C041092D10108950E9486068093AF
:100D4000CE0181110CC082E00E94E803811107C02E
:100D500060E082E00E940C0481E08093D10108955C
:100D6000E2EDF1E01182108213821282089580E098
:100D70000E948B049093D3018093D2010895823016
:100D800048F4E82FF0E0EE0FFF1FEE52FE4F808197
:100D90009181089580E090E0089583E08093D601EA
:100DA0001092D8011092D90181E08093D701089563
:100DB000843020F083E08093D60108958093D6019B
:100DC000089588E893E10E94A3048091D8018230BD
:100DD00071F128F4882359F08130B1F06CC084306F
:100DE00009F44BC0B8F1853009F45AC064C081E001
:100DF0000E94970421E040E060E082E00E94CD0381
:100E000081E08093D801089582E00E94E803811177
:100E100056C021E040E060E082E00E94CD0382E025
:100E20008093D80180E00E94970481E0089582E0D9
:100E30000E94E803811145C021E040E060E082E0CB
:100E40000E94CD0383E08093D80181E00E94970443
:100E500081E0089582E00E94E803811134C021E01E
:100E600040E060E082E00E94CD0384E08093D801FE
:100E700080E00E94970481E0089582E00E94E803E8
:100E8000811123C021E040E060E082E00E94CD03B8
:100E900085E08093D80181E00E94970481E0089565
:100EA00082E00E94E803811112C01092D8010E94D2
:100EB000970480E008951092D80180E0089581E0C1
:100EC000089581E0089581E0089581E0089581E02A
:100ED00008958091D901882319F0813071F018C0EC
:100EE00021E040E060E083E00E94CD0381E00E94C9
:100EF000970481E08093D901089583E00E94E8037C
:100F000081110AC00E9497041092D90180E00895CF
:100F10001092D90180E0089581E008958091D70171
:100F2000882379F08130C9F423E040E060E084E078
:100F30000E94CD0381E00E9497041092D70181E0C6
:100F4000089584E00E94E80381110CC00E94970478
:100F500081E08093D70180E0089581E08093D701FC
:100F600080E0089581E008958091D601813071F08C
:100F700028F0823099F08330C9F008950E94E1068C
:100F8000811117C083E08093D60108950E946907FC
:100F900081110FC083E08093D60108950E948E07CF
:100FA000811107C083E08093D601089580E00E94FC
:100FB0009704089597FB072E16F4009407D077FD49
:100FC00009D00E94EE0707FC05D03EF4909581956C
:100FD0009F4F0895709561957F4F0895AA1BBB1B85
:100FE00051E107C0AA1FBB1FA617B70710F0A61B29
:100FF000B70B881F991F5A95A9F780959095BC014A
:08100000CD010895F894FFCF23
:101008002300260029000101010201030200000556
:10101800000400030002C0C0C0F9C0C0C0C0010283
:1010280004081020010000000000FEFDFBF7EFDFC0
:10103800BF7F01020408102040800001020304055C
:101048000100000000000101010101010101F1F2AC
:02105800F4F8AA
:00000001FF
