S0100000456C657661646F722E73726563E2
S11300000C9434000C9451000C9451000C94510045
S11300100C9451000C9451000C9451000C94510018
S11300200C9451000C9451000C9451000C94510008
S11300300C9451000C94F7030C9451000C9451004F
S11300400C9451000C9451000C9451000C945100E8
S11300500C9451000C9451000C9451000C945100D8
S11300600C9451000C94510011241FBECFEFD8E022
S1130070DEBFCDBF11E0A0E0B1E0E8EEFFE002C0DA
S113008005900D92A235B107D9F721E0A2E5B1E0C0
S113009001C01D92A63DB207E1F70E94A3000C9493
S11300A0F2070C9400008FEF8093540184E1809355
S11300B055011092570180E00E94C8061092560123
S11300C008950E946606809354018F3FD9F18130D0
S11300D089F018F08230D9F0089580EA9FE00E94F8
S11300E0A90481E00E94C8061092530180E00E9496
S11300F00401089580EA9FE00E94A90481E00E941F
S1130100C80681E0809353010E940401089580EAA7
S11301109FE00E94A90481E00E94C80680915301D7
S1130120811106C084E00E94F70581E00E94040169
S113013080915301813031F484E00E94F70580E01E
S11301400E94040108951092580110928000E1E881
S1130150F0E0108280818560808384E294EF909344
S1130160850080938400EFE6F0E0808181608083E5
S113017078940E9449010E942D030E942F040E943A
S1130180F4050E948E030E94BD060E94A0060E94F0
S113019001010E945300C1E00E94A6030E9447058A
S11301A080915801823099F028F4882341F08130FD
S11301B059F01AC0833081F0843089F015C00E9450
S11301C0A4070E94C00513C00E94610010C00E94D1
S11301D072010E94A7060BC00E94290108C00E9458
S11301E06B060E94FC0503C0C0935801D5CF8091D3
S11301F058018F5F80935801853070F21092580136
S1130200CBCF10925A01089580935B0180E00E9445
S1130210AF0690935D0180935C0120915B012111F5
S11302200BC0853F914020F481E080935A010895EA
S113023083E080935A010895213051F4853F914021
S113024020F081E080935A01089582E080935A015E
S1130250089580915B010E94040180915A018230CB
S113026081F0833091F0813099F483E00E94F705A6
S113027081E08093590184E00E94F70510925A01AD
S1130280089581E00E94F705089582E00E94F70531
S11302900895CF93DF9310926A0110926B0110922C
S11302A07E00CEE5D1E064E271E0EEE1F1E080E0D1
S11302B028E730E019921992DB019D91BD0191303C
S11302C051F4863040F4D90116964C9116979081DA
S11302D0942B16969C938F5F3196863059F7DF9155
S11302E0CF91089580916A01823081F128F48823A6
S11302F041F08130F9F05FC08330C1F18430F1F115
S11303005AC080916C018F5F863018F480936C0121
S113031002C010926C01E0916C01F0E0EC5DFE4FC4
S11303208081813009F049C080936A0182E380931F
S11303306B01089580916B01882321F08150809393
S11303406B01089582E080936A010895E8E7F0E084
S1130350948180916C01892B848387E882838281D4
S11303608064828383E080936A01089580917A0097
S113037086FD23C084E080936A01089580917C0007
S113038085FF03C02091790030E080917C0085FDD9
S113039006C0E8E7F0E02081818130E0382BE0916D
S11303A06C01F0E0EE0FFF1FE25AFE4F3183208311
S11303B010926A01089510926A010895E8E7F0E046
S11303C094819F779483948190649483823068F4B9
S11303D0811104C084818062848307C0813029F440
S11303E0E8E7F0E084818F7D8483623078F46111E2
S11303F006C0E8E7F0E082818F7D82830895613052
S113040029F4E8E7F0E082818062828308958630EF
S113041048F4E82FF0E0EE0FFF1FE25AFE4F808110
S11304209181089580E090E0089570E0FB01EE5C16
S1130430FE4F2081813031F018F0823029F005C060
S113044095B103C098B101C09BB1413069F4E82F64
S1130450F0E0EE0FFF1FE050FF4F0190F081E02D20
S11304608181822B81830895411114C0E82FF0E02B
S1130470EE0FFF1FE050FF4F0190F081E02D8181CE
S1130480DB01A65DBE4F9C91982391839281822FBC
S1130490892B82830895411114C0E82FF0E0EE0FF8
S11304A0FF1FE050FF4FA081B18112969C911297DB
S11304B0E62FF0E0E65DFE4F8081892312968C934F
S11304C00895E82FF0E0EE0FFF1FE050FF4FA081EA
S11304D0B18112969C911297E62FF0E0EE5CFE4FEC
S11304E08081892B12968C930895E82FF0E0EE0F0B
S11304F0FF1FE050FF4F0190F081E02D9081E62F27
S1130500F0E0EE5CFE4F8081982381E009F480E006
S113051008959B012D563740273C310518F581304D
S113052069F018F08230A1F01DC092E295BD9B01E4
S113053025553B40273C310508F179C092E2909360
S113054081009B0125553B40273C310500F176C0D5
S113055092E29093B1009B0125553B40273C310525
S113056000F173C09B0125553B40273C310518F52C
S1130570813069F018F08230F1F413C093E295BD34
S11305809B012D533F40273C310508F13AC093E2CB
S1130590909381009B012D533F40273C3105F8F097
S11305A030C093E29093B1009B012D533F40273C10
S11305B03105F0F026C09B012D533F40273C310507
S11305C000F5813061F018F08230D9F411C082E076
S11305D085BD65527341673C7105F0F0089582E072
S11305E08093810065527341673C7105C0F00895A2
S11305F082E08093B10065527341673C710598F0C5
S1130600089565527341673C710530F5813039F0C6
S113061018F0823009F507C085E285BD089585E2AA
S113062080938100089585E28093B10008959B0131
S11306302D533F40273C310550F2E3CF9B012D530E
S11306403F40273C310558F2DCCF9B012D533F40FE
S1130650273C310568F2D5CF0895CF93DF93539AA1
S1130660C0EBD0E081E3888360E777E182E00E9419
S113067089021C82DF91CF910895653608F064E603
S1130680823001F128F4882349F0813089F00895FB
S1130690843071F110F18530B1F108952FEF629F2C
S11306A0C001112464E670E00E94CA0767BD089582
S11306B02FEF629FC001112464E670E00E94CA0714
S11306C068BD08952FEF629FC001112464E670E0B5
S11306D00E94CA076093890008952FEF629FC001AA
S11306E0112464E670E00E94CA0760938B000895A9
S11306F02FEF629FC001112464E670E00E94CA07D4
S11307006093B30008952FEF629FC001112464E643
S113071070E00E94CA076093B4000895EFE6F1E028
S11307208EE791E01082128211823396E817F9075E
S1130730C9F7EEE7F1E08AE991E0108211821282B2
S113074013823496E817F907C1F70895809152018E
S1130750813041F5EEE7F1E02AE931E04BE38081B5
S11307608130D1F48381882349F08150838352817D
S11307709181952B892B81F410820EC0828188236C
S113078021F081508283438307C08181882321F033
S113079081508183428343833496E217F307F9F649
S11307A01092520108958730C0F490E0FC01EE0FDE
S11307B0FF1FEE0FFF1FE258FE4F1082618342833A
S11307C02383242B622B49F0880F991F880F991FCC
S11307D0FC01E258FE4F81E08083089524E0829F6B
S11307E0C0011124FC01E258FE4F808108951F923C
S11307F00F920FB60F9211248F939F938091520101
S1130800811109C084E294EF909385008093840061
S113081081E0809352019F918F910F900FBE0F90B2
S11308201F90189590E0662331F0FC01E556FE4FC9
S113083021E020830895FC01E556FE4F10820895BF
S1130840EBE9F1E02FE931E091E0882311F09083A6
S113085001C010823196E217F307B9F708950F9398
S11308601F93CF93DF93CEE0D1E006E111E041E0A6
S1130870698188810E9415022296C017D107B9F7B1
S1130880C6E0D1E00EE011E040E0698188810E9479
S113089015022296C017D107B9F781E00E942004FF
S11308A0549A579A209A60E081E00E94DE011092E7
S11308B0B70110929A01E0E4F1E08BEA91E0CFEB0A
S11308C0D1E068EB71E046E451E02191213039F444
S11308D0DC011D921C9219821882DB011C92029683
S11308E022966F5F7F4FE417F50779F7DF91CF9179
S11308F01F910F910895282F843070F48091BE01C8
S113090090E0A0E0B0E004C0B695A79597958795D0
S11309102A95D2F78170089580E008950E94C30556
S11309200895863048F4E82FF0E0EE0FFF1FE555F8
S1130930FE4F8081918108950895882329F062E310
S113094085E00E943D03089560E085E00E943D0338
S11309500895803D27E0920720F0BC0182E00E94C8
S113096089020895AF92BF92CF92DF92EF92FF92E5
S11309700F931F93CF93DF93CAE4D1E00F2EFBE9CB
S1130980EF2EF1E0FF2EF02D0EE011E00F2EFEE42D
S1130990CF2EF1E0DF2EF02DBB24B394A12C89914E
S11309A0813059F4F8014B2DD7018C91811101C08C
S11309B04A2D618180810E944B02BFEFEB1AFB0A32
S11309C00E5F1F4FCC15DD0551F7DF91CF911F91BD
S11309D00F91FF90EF90DF90CF90BF90AF9008956C
S11309E08F929F92AF92BF92DF92EF92FF920F93FA
S11309F01F93CF93DF930F2EF6E4EF2EF1E0FF2E3B
S1130A00F02D06E011E0C0E0D0E0812C912C5401DF
S1130A108394F70181917F01813039F5F801618177
S1130A2080810E947502811110C0D501C4010C2E71
S1130A3004C0880F991FAA1FBB1F0A94D2F72091E4
S1130A40BE01822B8093BE0110C0D501C4010C2EBF
S1130A5004C0880F991FAA1FBB1F0A94D2F7809560
S1130A609091BE0189238093BE0121960E5F1F4F92
S1130A70C430D10571F6DF91CF911F910F91FF9092
S1130A80EF90DF90BF90AF909F908F9008950E9459
S1130A90B2040E94F0040895CF93DF938091B701CC
S1130AA0813019F0833031F05DC060E081E00E9454
S1130AB0DE0158C0C0919A01D0E0FE01E05CFE4F17
S1130AC08081813009F044C0FE01E854FE4F8081EA
S1130AD0883038F5FE01E65CFE4F80810E940702F3
S1130AE0CC0FDD1FC156DE4F99838883E0919A01B4
S1130AF0F0E0CF01880F991FDC01A154BE4FEC0137
S1130B00C156DE4F2D913C91119788819981820FB6
S1130B10931F8D939C93E854FE4F80818F5F808355
S1130B2017C0FE01EE0FFF1FDF01A555BE4FE154B4
S1130B30FE4F808191819695879596958795969598
S1130B4087958D939C9311821082C854DE4F18822E
S1130B5080919A018F5F863018F480939A0102C0C5
S1130B6010929A018091B7018F5F843018F48093BA
S1130B70B70103C081E08093B701DF91CF9108955D
S1130B800E944C050895FB015C9847E050E02081E9
S1130B9030E0042E02C0359527950A94E2F720FF31
S1130BA002C0289A01C028985F9A5F984150510961
S1130BB070F727E030E0E82FF0E0E25BFE4F408181
S1130BC050E0CA01022E02C0959587950A94E2F777
S1130BD080FF02C0289A01C028985F9A5F9821502C
S1130BE0310978F75C9A08951092CD010895853003
S1130BF010F48093CD0108958091CD01823029F1C4
S1130C0028F4882341F0813099F00895833051F11C
S1130C108430A9F1089561E080E00E94120461E04B
S1130C2081E00E94120460E082E00E9412040895B0
S1130C3060E080E00E94120461E081E00E941204FE
S1130C4060E082E00E941204089561E080E00E9466
S1130C50120460E081E00E94120460E082E00E94DD
S1130C601204089561E080E00E94120461E081E0D2
S1130C700E94120461E082E00E941204089561E07F
S1130C8080E00E94120461E081E00E94120460E0AE
S1130C9082E00E94120408958AEA8093CC0180E0E5
S1130CA00E947B04813011F41092CC0181E00E94F7
S1130CB07B04813011F48093CC0182E00E947B0498
S1130CC0813019F482E08093CC0108950E944C068F
S1130CD08091CC01089580E00E94AF06853F914049
S1130CE0B8F41092CB016AE171E080E00E948E04B6
S1130CF06BE171E081E00E948E046CE171E082E0BE
S1130D000E948E046DE171E083E00E948E040895D8
S1130D1081E08093CB0166E171E080E00E948E0463
S1130D2067E171E081E00E948E0468E171E082E095
S1130D300E948E0469E171E083E00E948E040895AC
S1130D40EEECF1E01182108213821282089580E0A9
S1130D500E9491049093CF018093CE010895823034
S1130D6048F4E82FF0E0EE0FFF1FE253FE4F8081BE
S1130D709181089580E090E0089583E08093D2010A
S1130D801092D4011092D50181E08093D30108958B
S1130D90843020F083E08093D20108958093D201BF
S1130DA0089588E893E10E94A9048091D4018230D7
S1130DB071F128F4882359F08130B1F06CC084308B
S1130DC009F44BC0B8F1853009F45AC064C081E01D
S1130DD00E949D0421E040E060E082E00E94D30391
S1130DE081E08093D401089582E00E94EE03811192
S1130DF056C021E040E060E082E00E94D30382E03C
S1130E008093D40180E00E949D0481E0089582E0F3
S1130E100E94EE03811145C021E040E060E082E0E1
S1130E200E94D30383E08093D40181E00E949D0457
S1130E3081E0089582E00E94EE03811134C021E034
S1130E4040E060E082E00E94D30384E08093D40118
S1130E5080E00E949D0481E0089582E00E94EE03F8
S1130E60811123C021E040E060E082E00E94D303CE
S1130E7085E08093D40181E00E949D0481E008957F
S1130E8082E00E94EE03811112C01092D4010E94EC
S1130E909D0480E008951092D40180E0089581E0DB
S1130EA0089581E0089581E0089581E0089581E046
S1130EB008958091D501882319F0813071F018C00C
S1130EC021E040E060E083E00E94D30381E00E94DF
S1130ED09D0481E08093D501089583E00E94EE0390
S1130EE081110AC00E949D041092D50180E00895EA
S1130EF01092D50180E0089581E008958091D30196
S1130F00882379F08130C9F423E040E060E084E094
S1130F100E94D30381E00E949D041092D30181E0DA
S1130F20089584E00E94EE0381110CC00E949D0488
S1130F3081E08093D30180E0089581E08093D30120
S1130F4080E0089581E008958091D201813071F0AC
S1130F5028F0823099F08330C9F008950E94D106B8
S1130F60811117C083E08093D20108950E9459072C
S1130F7081110FC083E08093D20108950E947E07FF
S1130F80811107C083E08093D201089580E00E941C
S1130F909D04089597FB072E16F4009407D077FD5F
S1130FA009D00E94DE0707FC05D03EF49095819598
S1130FB09F4F0895709561957F4F0895AA1BBB1BA1
S1130FC051E107C0AA1FBB1FA617B70710F0A61B45
S1130FD0B70B881F991F5A95A9F780959095BC0166
S10B0FE0CD010895F894FFCF40
S1130FE82300260029000101010201030001000574
S1130FF8000400030002C0C0C0F9C0C0C0C00102A0
S113100804081020010000000000FEFDFBF7EFDFDC
S1131018BF7F010204081020408000010203040578
S11310280100000000000101010101010101F1F2C8
S1051038F4F8C6
S9030000FC
