S0100000456C657661646F722E73726563E2
S11300000C9434000C9451000C9451000C94510045
S11300100C9451000C9451000C9451000C94510018
S11300200C9451000C9451000C9451000C94510008
S11300300C9451000C9433040C9451000C94510012
S11300400C9451000C9451000C9451000C945100E8
S11300500C9451000C9451000C9451000C945100D8
S11300600C9451000C94510011241FBECFEFD8E022
S1130070DEBFCDBF11E0A0E0B1E0E8EFF0E102C0E7
S113008005900D92AA36B107D9F721E0AAE6B1E0AE
S113009001C01D92A93EB207E1F70E94E2000C9450
S11300A07A080C9400008FEF80936B0184E18093B5
S11300B06C0110926E0180E00E942C0710926D0179
S11300C008950E949B0680936B018F3F09F463C0DF
S11300D08130E9F030F0823089F1833009F445C091
S11300E05AC080E00E94370683E00E94820180EAC1
S11300F09FE00E94E60481E00E942C0720E040E09B
S113010060E085E00E940F0410926D0144C081E01C
S11301100E94370680E00E94820180ED97E00E94F1
S1130120E60481E00E942C072AE040E060E085E0DC
S11301300E940F0481E080936D012DC082E00E9433
S1130140370681E00E94820188EB9BE00E94E6046E
S113015081E00E942C072FE040E060E085E00E94EF
S11301600F0481E080936D0116C083E00E9437067E
S113017082E00E94820188E893E10E94E60481E023
S11301800E942C0724E140E060E085E00E940F0417
S113019081E080936D010E941A0780916D01813086
S11301A081F485E00E942A0481110BC082E00E9440
S11301B02C0780E00E94370683E00E94820110929F
S11301C06D01089510926F0110928000E1E8F0E053
S11301D0108280818560808384E294EF909385000F
S11301E080938400EFE6F0E08081816080837894DE
S11301F00E9485010E9469030E946B040E943106DB
S11302000E94CA030E9421070E942E080E943B01FB
S11302100E945300C1E00E94E2030E948405809181
S11302206F01823099F028F4882341F0813059F02D
S113023015C0833081F08430A1F010C00E940808FA
S11302400E94FD050EC00E9461000BC00E94AE0119
S11302500E94350806C00E94410103C0C0936F018B
S1130260DACF80916F018F5F80936F01853098F2B0
S113027010926F01D0CF1092710183E080937001CE
S11302800895EF92FF920F931F93CF93DF93E09122
S11302907001F0E0EE0FFF1FEE0FFF1FEA5DFE4F4F
S11302A0E080F1800281138181E00E944408EC0126
S11302B080917001833021F461E00E944E041BC0E0
S11302C080917101882319F0813061F014C061E0DC
S11302D083E00E944E04EC16FD0668F081E08093F2
S11302E0710109C060E083E00E944E04C017D10789
S11302F010F010927101DF91CF911F910F91FF9037
S1130300EF900895809370010895CF93DF93109236
S11303107E0110927F0110927E00C2E7D1E06CE36F
S113032071E0E6E3F1E080E028E730E01992199209
S1130330DB019D91BD01913051F4863040F4D90127
S113034016964C9116979081942B16969C938F5FDA
S11303503196863059F7DF91CF91089580917E01CF
S1130360823081F128F4882341F08130F9F05FC0B4
S11303708330C1F18430F1F15AC0809180018F5FE4
S1130380863018F48093800102C010928001E091BD
S11303908001F0E0E45CFE4F8081813009F049C0C7
S11303A080937E0182E380937F01089580917F0191
S11303B0882321F0815080937F01089582E0809307
S11303C07E010895E8E7F0E0948180918001892B13
S11303D0848387E8828382818064828383E080933C
S11303E07E01089580917A0086FD23C084E0809385
S11303F07E01089580917C0085FF03C020917900DF
S113040030E080917C0085FD06C0E8E7F0E02081C3
S1130410818130E0382BE0918001F0E0EE0FFF1F86
S1130420EE58FE4F3183208310927E01089510927E
S11304307E010895E8E7F0E094819F7794839481A6
S113044090649483823068F4811104C08481806252
S1130450848307C0813029F4E8E7F0E084818F7D4C
S11304608483623078F4611106C0E8E7F0E08281A9
S11304708F7D82830895613029F4E8E7F0E082817A
S1130480806282830895863048F4E82FF0E0EE0F0E
S1130490FF1FEE58FE4F80819181089580E090E027
S11304A0089570E0FB01E65BFE4F2081813031F05E
S11304B018F0823029F005C095B103C098B101C08D
S11304C09BB1413069F4E82FF0E0EE0FFF1FE050DC
S11304D0FF4F0190F081E02D8181822B818308956B
S11304E0411114C0E82FF0E0EE0FFF1FE050FF4F62
S11304F00190F081E02D8181DB01AE5BBE4F9C91C8
S1130500982391839281822F892B828308954111AC
S113051014C0E82FF0E0EE0FFF1FE050FF4FA08162
S1130520B18112969C911297E62FF0E0EE5BFE4F9C
S11305308081892312968C930895E82FF0E0EE0FC2
S1130540FF1FE050FF4FA081B18112969C9112973A
S1130550E62FF0E0E65BFE4F8081892B12968C93A8
S11305600895E82FF0E0EE0FFF1FE050FF4F0190D9
S1130570F081E02D9081E62FF0E0E65BFE4F808174
S1130580982381E009F480E008959B012D563740BB
S1130590273C310518F5813069F018F08230A1F05C
S11305A01DC092E295BD9B0125553B40273C31057A
S11305B008F179C092E2909381009B0125553B405C
S11305C0273C310500F176C092E29093B1009B0183
S11305D025553B40273C310500F173C09B0125554F
S11305E03B40273C310518F5813069F018F0823022
S11305F0F1F413C093E295BD9B012D533F40273C7A
S1130600310508F13AC093E2909381009B012D5388
S11306103F40273C3105F8F030C093E29093B1009D
S11306209B012D533F40273C3105F0F026C09B0130
S11306302D533F40273C310500F5813061F018F01F
S11306408230D9F411C082E085BD65527341673CA4
S11306507105F0F0089582E0809381006552734142
S1130660673C7105C0F0089582E08093B100655243
S11306707341673C710598F0089565527341673C76
S1130680710530F5813039F018F0823009F507C072
S113069085E285BD089585E280938100089585E211
S11306A08093B10008959B012D533F40273C3105B1
S11306B050F2E3CF9B012D533F40273C310558F2C4
S11306C0DCCF9B012D533F40273C310568F2D5CF49
S11306D00895CF93DF93539AC0EBD0E081E38883EE
S11306E060E777E182E00E94C5021C82DF91CF912E
S11306F00895653608F064E6823001F128F4882311
S113070049F0813089F00895843071F110F1853019
S1130710B1F108952FEF629FC001112464E670E0E7
S11307200E94520867BD08952FEF629FC0011124F3
S113073064E670E00E94520868BD08952FEF629F3E
S1130740C001112464E670E00E945208609389009D
S113075008952FEF629FC001112464E670E00E94A7
S1130760520860938B0008952FEF629FC0011124FB
S113077064E670E00E9452086093B30008952FEF7E
S1130780629FC001112464E670E00E9452086093E5
S1130790B4000895E3E8F1E082E991E01082128266
S11307A011823396E817F907C9F7E2E9F1E08EEA16
S11307B091E010821182128213823496E817F907AD
S11307C0C1F7089580916A01813041F5E2E9F1E0D1
S11307D02EEA31E04BE380818130D1F48381882398
S11307E049F08150838352819181952B892B81F427
S11307F010820EC08281882321F08150828343833A
S113080007C08181882321F08150818342834383FF
S11308103496E217F307F9F610926A0108958730C7
S1130820C0F490E0FC01EE0FFF1FEE0FFF1FEE5629
S1130830FE4F1082618342832383242B622B49F071
S1130840880F991F880F991FFC01EE56FE4F81E017
S11308508083089524E0829FC0011124FC01EE5698
S1130860FE4F808108951F920F920FB60F921124AC
S11308708F939F9380916A01811109C084E294EF60
S1130880909385008093840081E080936A019F9116
S11308908F910F900FBE0F901F90189590E06623D4
S11308A031F0FC01E155FE4F21E020830895FC0165
S11308B0E155FE4F10820895EFEAF1E023EB31E0B9
S11308C091E0882311F0908301C010823196E217E1
S11308D0F307B9F708950F931F93CF93DF93CEE0F7
S11308E0D1E006E111E041E0698188810E94510272
S11308F02296C017D107B9F7C6E0D1E00EE011E0A7
S113090040E0698188810E9451022296C017D10774
S1130910B9F781E00E945C04549A579A209A60E0E7
S113092081E00E941A021092CB0185E08093AE010F
S1130930E8E5F1E08FEB91E0C3EDD1E06CEC71E020
S11309404EE551E02191213039F4DC011D921C92D5
S113095019821882DB011C92029622966F5F7F4FE8
S1130960E417F50779F7DF91CF911F910F9108955F
S1130970282F843070F48091D20190E0A0E0B0E0A0
S113098004C0B695A795979587952A95D2F7817057
S1130990089580E008950E9400060895863048F482
S11309A0E82FF0E0EE0FFF1FE154FE4F80819181AC
S11309B008950895882329F062E385E00E9479036D
S11309C0089560E085E00E9479030895803D27E062
S11309D0920720F0BC0182E00E94C5020895AF9204
S11309E0BF92CF92DF92EF92FF920F931F93CF9318
S11309F0DF93C2E6D1E00F2EFFEAEF2EF1E0FF2EE7
S1130A00F02D0EE011E00F2EF6E6CF2EF1E0DF2EF2
S1130A10F02DBB24B394A12C8991813059F4F801B1
S1130A204B2DD7018C91811101C04A2D61818081A8
S1130A300E948702BFEFEB1AFB0A0E5F1F4FCC1513
S1130A40DD0551F7DF91CF911F910F91FF90EF904A
S1130A50DF90CF90BF90AF9008958F929F92AF9206
S1130A60BF92DF92EF92FF920F931F93CF93DF9386
S1130A700F2EFEE5EF2EF1E0FF2EF02D06E011E043
S1130A80C0E0D0E0812C912C54018394F701819132
S1130A907F01813039F5F801618180810E94B102C2
S1130AA0811110C0D501C4010C2E04C0880F991FF8
S1130AB0AA1FBB1F0A94D2F72091D201822B8093E4
S1130AC0D20110C0D501C4010C2E04C0880F991F97
S1130AD0AA1FBB1F0A94D2F780959091D201892353
S1130AE08093D20121960E5F1F4FC430D10571F659
S1130AF0DF91CF911F910F91FF90EF90DF90BF9006
S1130B00AF909F908F9008950E94EF040E942D054E
S1130B100895CF93DF938091CB01813019F0833016
S1130B2031F05DC060E081E00E941A0258C0C091BB
S1130B30AE01D0E0FE01E85AFE4F8081813009F019
S1130B4044C0FE01E453FE4F8081883038F5FE0135
S1130B50EE5AFE4F80810E944302CC0FDD1FCD541C
S1130B60DE4F99838883E091AE01F0E0CF01880FD6
S1130B70991FDC01AD52BE4FEC01CD54DE4F2D91D7
S1130B803C91119788819981820F931F8D939C9337
S1130B90E453FE4F80818F5F808317C0FE01EE0F08
S1130BA0FF1FDF01A154BE4FED52FE4F80819181A2
S1130BB09695879596958795969587958D939C930D
S1130BC011821082C453DE4F18828091AE018F5F70
S1130BD0863018F48093AE0102C01092AE01809169
S1130BE0CB018F5F843018F48093CB0103C081E084
S1130BF08093CB01DF91CF9108950E9489050895D8
S1130C00FB015C9847E050E0208130E0042E02C0F4
S1130C10359527950A94E2F720FF02C0289A01C06F
S1130C2028985F9A5F984150510970F727E030E0A7
S1130C30E82FF0E0EA59FE4F408150E0CA01022E4D
S1130C4002C0959587950A94E2F780FF02C0289A1E
S1130C5001C028985F9A5F982150310978F75C9A0F
S1130C60089584E08093E0011092DF0108958630B6
S1130C7010F48093E00108958091E0018230F9F04E
S1130C8028F4882359F0813069F00895833021F1E4
S1130C90843071F581E00E945C04089581E00E9433
S1130CA05C04089560E080E00E944E0461E081E00D
S1130CB00E944E0461E082E00E944E04089560E0C8
S1130CC080E00E944E0460E081E00E944E0461E0F6
S1130CD082E00E944E04089560E080E00E944E0489
S1130CE060E081E00E944E0460E082E00E944E04D5
S1130CF008958AEA8093DF0180E00E94B80481307D
S1130D0011F48093DF0181E00E94B804813019F46A
S1130D1082E08093DF0182E00E94B804813019F4FC
S1130D2083E08093DF0183E00E94B804813011F4F2
S1130D301092DF0108950E9479068091DF010895E1
S1130D408091E001823009F44BC028F4882349F0F3
S1130D50813089F10895833009F457C08430B1F0AB
S1130D60089562E271E080E00E94CB0463E271E0E6
S1130D7081E00E94CB0464E271E082E00E94CB0433
S1130D8065E271E083E00E94CB04089562E271E0C1
S1130D9080E00E94CB0463E271E081E00E94CB0416
S1130DA064E271E082E00E94CB0465E271E083E0DA
S1130DB00E94CB0408956EE171E080E00E94CB04B0
S1130DC06FE171E081E00E94CB0460E271E082E0B7
S1130DD00E94CB0461E271E083E00E94CB04089599
S1130DE06AE171E080E00E94CB046BE171E081E094
S1130DF00E94CB046CE171E082E00E94CB046DE1BF
S1130E0071E083E00E94CB04089566E171E080E024
S1130E100E94CB0467E171E081E00E94CB0468E1A9
S1130E2071E082E00E94CB0469E171E083E00E94FA
S1130E30CB0408950E9479060E943C060E94A006F5
S1130E40089583E08093E1011092E3011092E4019C
S1130E5081E08093E2010895843020F083E0809360
S1130E60E10108958093E101089588E893E10E94E7
S1130E70E6048091E301823071F128F4882359F06B
S1130E808130B1F06CC0843009F44BC0B8F18530C6
S1130E9009F45AC064C081E00E94DA0421E040E011
S1130EA060E082E00E940F0481E08093E3010895F2
S1130EB082E00E942A04811156C021E040E060E0F3
S1130EC082E00E940F0482E08093E30180E00E94AC
S1130ED0DA0481E0089582E00E942A04811145C069
S1130EE021E040E060E082E00E940F0483E0809310
S1130EF0E30181E00E94DA0481E0089582E00E9427
S1130F002A04811134C021E040E060E082E00E94C4
S1130F100F0484E08093E30180E00E94DA0481E01E
S1130F20089582E00E942A04811123C021E040E058
S1130F3060E082E00E940F0485E08093E30181E099
S1130F400E94DA0481E0089582E00E942A0481115B
S1130F5012C01092E3010E94DA0480E00895109216
S1130F60E30180E0089581E0089581E0089581E03F
S1130F70089581E0089581E008958091E401882333
S1130F8019F0813071F018C021E040E060E083E0A6
S1130F900E940F0481E00E94DA0481E08093E4015E
S1130FA0089583E00E942A0481110AC00E94DA0491
S1130FB01092E40180E008951092E40180E0089525
S1130FC081E008958091E201882379F08130C9F4A9
S1130FD023E040E060E084E00E940F0481E00E948E
S1130FE0DA041092E20181E0089584E00E942A0468
S1130FF081110CC00E94DA0481E08093E20180E058
S1131000089581E08093E20180E0089581E00895ED
S11310108091E101813071F028F0823099F08330C1
S1131020C9F008950E943507811117C083E08093A9
S1131030E10108950E94BD0781110FC083E08093F0
S1131040E10108950E94E207811107C083E08093C3
S1131050E101089580E00E94DA040895E5EEF1E0EC
S11310601182108213821282089585E00E94CE04B8
S113107080579E4F9695879596958795C29690939F
S1131080E8018093E7010895823048F4E82FF0E006
S1131090EE0FFF1FEB51FE4F80819181089580E098
S11310A090E0089597FB072E16F4009407D077FD7F
S11310B009D00E94660807FC05D03EF490958195FE
S11310C09F4F0895709561957F4F0895AA1BBB1B90
S11310D051E107C0AA1FBB1FA617B70710F0A61B34
S11310E0B70B881F991F5A95A9F780959095BC0155
S10B10F0CD010895F894FFCF2F
S11310F82300260029000101010201030001000563
S1131108000400030002C0B0B0C0C0A480C0C0F98D
S113111890C0C0C0C0C0B400D200FA002C01400185
S11311287C010000000001020408102000000000F7
S11311380001FEFDFBF7EFDFBF7F0102040810206A
S113114840800001020304050000000000010101C1
S10D1158010101010101F1F2F4F8B4
S9030000FC
